:060000000A128A11142906
:100200008A010A140F3982073F3406345B344F34B5
:1002100066346D347D3407347F34673477347C340E
:1002200039345E347934713436211621031783163C
:1002300088018901031383168501031383168E3009
:1002400086000313831687010313831688010313A3
:10025000831681130313831695141515951503132F
:100260008312850186018701880108000313831624
:080270000F138F160F16080092
:04400E00E43FFF3F4D
:00000001FF
