:060000000A128A11142906
:10000800F000030EF1000B1912200C1850200B18E9
:100018006B20710E8300F00E700E0900031383121B
:10002800E63081000B1188012A1C2828AA1C2D28DB
:100038002A1D3228AA1D37282A1E3C28AA1E412814
:100048002A1F4628AA1F4B282A1423088700881429
:100058000800AA1424088700081408002A1525088F
:10006800870088150800AA152608870008150800C3
:100078002A162708870088160800AA162808870065
:10008800081608002A172A08870088170800AA01F6
:10009800290887000817080003138312DC308E0034
:1000A8000B308F000C10AC0A2C08023C031D6A2888
:1000B800AC01AD0A301CB10303193014B01CB203F3
:1000C8000319B014301DB3030319301508000313C6
:1000D8008312061CAE0A06302E02031D7528023054
:1000E800AE00861CAF0A15302F0203198328061D9F
:1000F800AF0309302F02031987280B1008000A30B4
:0E010800AF000B1008001430AF000B10080001
:100200008A010A140F3982073F3406345B344F34B5
:1002100066346D347D3407347F34673477347C340E
:1002200039345E34793471343A2141216621842194
:100230008C219F21A9213108BA00A022AA223208CC
:10024000BA00A022B1223308BA00A022B8223B1C77
:10025000B12102302E020319BE2103302E020319F0
:10026000C82104302E020319D22105302E020319B1
:10027000DC211B29031383160F178F160F120F147F
:10028000080003178316880189010313831685016B
:1002900003138316860106148614061503138316AA
:1002A000870103138316880103138316890103133F
:1002B0008316811303138316151495141515031350
:1002C00083128501860187018801080003138312C8
:1002D00085018601870188018901B701B801B9014B
:1002E000AD01B401BB010A30A000A100A2002008AA
:1002F000B1002108B2002208B3000130AE000A307C
:10030000AF00FE30B0000800031383168112811184
:100310000115811401100800031383160C14031334
:1003200083129016101690111011901010140313D0
:100330008312DC308E000B308F000C10080003138A
:1003400083161614961416150313831206080B1041
:1003500008008B178B160B110C140C108B150B103F
:100360000800341C1422B4181D2234192E22B4198A
:100370003722341A4822B41A512208008615061270
:1003800086122F08B7003708BA00A022BF22080043
:100390008611061686122F08B8003808BA00A02267
:1003A000BF2208008611061286162F08B9003908E8
:1003B000BA00A022BF2208003B1486150616861636
:1003C0001230850002308900861CE921061D0022BA
:1003D0000800AF033708A000B1003808A100B20040
:1003E0003908A200B3000130AE003B10861106129E
:1003F0008612A901AA010630B000B401AD010800BF
:100400000130AE00AF0A2008B1002108B200220876
:10041000B3003B10861106128612A901AA0106300C
:10042000B000B401AD0108000C3085000130890036
:100430002D0820020319622208000A3085000130CD
:10044000890003302D02031926220800B410341548
:100450002108B200FD30B000AD0108002130850058
:10046000013089002D082102031973220800113080
:1004700085000130890003302D0203194022080055
:10048000B41134162208B300FB30B000AD010800EF
:1004900009308500043089002D08220203198422C6
:1004A0000800093085000230890003302D0203194D
:1004B0005A220800B41234102008B100FE30B000F7
:1004C000AD0108000511952205159522051195220B
:1004D000051595220511952205159522051134144F
:1004E000B414AD0108008512952285169522851257
:1004F00095228516952285129522851695228512BC
:100500003411B415AD010800091195220915952281
:10051000091195220915952209119522091595228F
:1005200009113412B416AD010800FF30B5009B224A
:10053000B50B972A0800FF30B600B60B9D2A0800BD
:10054000AB010A30BA020318AB0A0318A12A0A3019
:10055000BA0708003A080021A3002B080021A400D4
:1005600008003A080021A5002B080021A600080079
:100570003A080021A7002B080021A80008002B083A
:0C0580000021A9003A080021AA00080090
:04400E00E43FFF3F4D
:00000001FF
